:020000040800F2
:1000000000000120812700085D2500086525000803
:100010006D250008752500087D25000800000000FA
:10002000000000000000000000000000852500081E
:100030009325000800000000A1250008AF25000856
:10004000D1270008D1270008D1270008D1270008B0
:10005000D1270008D1270008D1270008D1270008A0
:10006000D1270008D1270008D1270008D127000890
:10007000D1270008D1270008D1270008D127000880
:10008000D1270008D1270008D12700080000000070
:10009000000000000000000000000000D127000860
:1000A000D1270008D1270008D1270008D127000850
:1000B000D1270008D1270008D1270008D127000840
:1000C000D1270008D1270008D1270008D127000830
:1000D000D1270008D1270008D12700080000000020
:1000E000D1270008D1270008D12700080000000010
:1000F000000000000000000000000000D127000800
:1001000000000000D1270008D1270008D1270008EF
:1001100000000000000000000000000000000000DF
:10012000D1270008D1270008D1270008D1270008CF
:10013000D1270008000000000000000000000000BF
:10014000000000000000000000000000BD250008C5
:10015000D1270008D1270008D1270008D12700089F
:10016000D1270008D127000800000000000000008F
:10017000000000000000000000000000000000007F
:1001800000000000D127000800000000000000006F
:04019000D12700086B
:1001A00010B5054C237833B9044B13B10448AFF3B1
:1001B00000800123237010BD080300200000000010
:1001C000ACE6000808B5034B1BB103490348AFF385
:1001D000008008BD000000000C030020ACE6000811
:1001E00001F0FF01102A2BDB10F0070F08D010F8E8
:1001F000013B013A8B422DD010F0070F42B3F6D1EC
:10020000F0B441EA012141EA014122F007047FF004
:1002100000070023F0E80256083C85EA010586EA5B
:10022000010685FA47F5A3FA87F586FA47F6A5FA97
:1002300087F68EB9EED1F0BC01F0FF0102F00702A3
:1002400032B110F8013B013A83EA010313B1F8D14E
:100250000020704701387047002D06BF354603382F
:10026000073815F0010F07D1013015F4807F02BF68
:10027000013015F4C03F0130F0BC0138704700BFB9
:10028000034613F8012B002AFBD1181A01387047D6
:1002900081F0004102E000BF83F0004330B54FEA37
:1002A00041044FEA430594EA050F08BF90EA020FA4
:1002B0001FBF54EA000C55EA020C7FEA645C7FEA37
:1002C000655C00F0E2804FEA5454D4EB5555B8BF5A
:1002D0006D420CDD2C4480EA020281EA030382EACB
:1002E000000083EA010180EA020281EA0303362D5D
:1002F00088BF30BD11F0004F4FEA01314FF4801C30
:100300004CEA113102D0404261EB410113F0004F41
:100310004FEA03334CEA133302D0524263EB4303F8
:1003200094EA050F00F0A780A4F10104D5F1200E96
:100330000DDB02FA0EFC22FA05F2801841F10001F1
:1003400003FA0EF2801843FA05F359410EE0A5F1C5
:1003500020050EF1200E012A03FA0EFC28BF4CF0F6
:10036000020C43FA05F3C01851EBE37101F00045AC
:1003700007D54FF0000EDCF1000C7EEB00006EEBB9
:100380000101B1F5801F1BD3B1F5001F0CD3490843
:100390005FEA30004FEA3C0C04F101044FEA44529A
:1003A00012F5800F80F09A80BCF1004F08BF5FEA21
:1003B000500C50F1000041EB045141EA050130BD01
:1003C0005FEA4C0C404141EB0101013C28BFB1F513
:1003D000801FE9D291F0000F04BF01460020B1FA5E
:1003E00081F308BF2033A3F10B03B3F120020CDA31
:1003F0000C3208DD02F1140CC2F10C0201FA0CF00F
:1004000021FA02F10CE002F11402D8BFC2F1200C73
:1004100001FA02F120FA0CFCDCBF41EA0C01904029
:10042000E41AA2BF01EB0451294330BD6FEA040472
:100430001F3C1CDA0C340EDC04F11404C4F120025D
:1004400020FA04F001FA02F340EA030021FA04F36F
:1004500045EA030130BDC4F10C04C4F1200220FAC6
:1004600002F001FA04F340EA0300294630BD21FA04
:1004700004F0294630BD94F0000F83F4801306BFCA
:1004800081F480110134013D4EE77FEA645C18BFBE
:100490007FEA655C29D094EA050F08BF90EA020F55
:1004A00005D054EA000C04BF1946104630BD91EA4D
:1004B000030F1EBF0021002030BD5FEA545C05D150
:1004C0004000494128BF41F0004130BD14F580048F
:1004D0003CBF01F5801130BD01F0004545F0FE4103
:1004E00041F470014FF0000030BD7FEA645C1ABF38
:1004F000194610467FEA655C1CBF0B46024650EA6F
:10050000013406BF52EA033591EA030F41F400219A
:1005100030BD00BF90F0000F04BF0021704730B520
:100520004FF4806404F132044FF000054FF00001F5
:1005300050E700BF90F0000F04BF0021704730B5B6
:100540004FF4806404F1320410F0004548BF40428B
:100550004FF000013EE700BF42004FEAE2014FEAE0
:1005600031014FEA02701FBF12F07F4393F07F4FBB
:1005700081F06051704732F07F4208BF704793F0BE
:100580007F4F04BF41F40021704730B54FF46074D1
:1005900001F0004521F000411CE700BF50EA0102D4
:1005A00008BF704730B54FF000050AE050EA01027D
:1005B00008BF704730B511F0004502D5404261EBED
:1005C00041014FF4806404F132045FEA915C3FF42E
:1005D000D8AE4FF003025FEADC0C18BF03325FEACB
:1005E000DC0C18BF033202EBDC02C2F1200300FA7C
:1005F00003FC20FA02F001FA03FE40EA0E0021FAA1
:1006000002F11444BDE600BF70B54FF0FF0C4CF48E
:10061000E06C1CEA11541DBF1CEA135594EA0C0F40
:1006200095EA0C0F00F0DEF82C4481EA030621EA7B
:100630004C5123EA4C5350EA013518BF52EA0335B6
:1006400041F4801143F4801338D0A0FB02CE4FF068
:100650000005E1FB02E506F00042E0FB03E54FF098
:100660000006E1FB03569CF0000F18BF4EF0010E90
:10067000A4F1FF04B6F5007F64F5407404D25FEA8C
:100680004E0E6D4146EB060642EAC62141EA55513F
:100690004FEAC52040EA5E504FEACE2EB4F1FD0C81
:1006A00088BFBCF5E06F1ED8BEF1004F08BF5FEAFF
:1006B000500E50F1000041EB045170BD06F00046B1
:1006C00046EA010140EA020081EA0301B4EB5C045E
:1006D000C2BFD4EB0C0541EA045170BD41F4801156
:1006E0004FF0000E013C00F3AB8014F1360FDEBF7B
:1006F000002001F0004170BDC4F10004203C35DA57
:100700000C341BDC04F11404C4F1200500FA05F3D9
:1007100020FA04F001FA05F240EA020001F000427A
:1007200021F0004110EBD37021FA04F642EB0601F0
:100730005EEA430E08BF20EAD37070BDC4F10C041A
:10074000C4F1200500FA04F320FA05F001FA04F2DE
:1007500040EA020001F0004110EBD37041F10001CA
:100760005EEA430E08BF20EAD37070BDC4F12005D5
:1007700000FA05F24EEA020E20FA04F301FA05F23D
:1007800043EA020321FA04F001F0004121FA04F2E5
:1007900020EA020000EBD3705EEA430E08BF20EAB5
:1007A000D37070BD94F0000F0FD101F000464000EF
:1007B00041EB010111F4801F08BF013CF7D041EA71
:1007C000060195F0000F18BF704703F00046520075
:1007D00043EB030313F4801F08BF013DF7D043EA46
:1007E0000603704794EA0C0F0CEA135518BF95EAFC
:1007F0000C0F0CD050EA410618BF52EA4306D1D183
:1008000081EA030101F000414FF0000070BD50EAA1
:10081000410606BF1046194652EA430619D094EA2B
:100820000C0F02D150EA013613D195EA0C0F05D115
:1008300052EA03361CBF104619460AD181EA030169
:1008400001F0004141F0FE4141F470014FF0000021
:1008500070BD41F0FE4141F4780170BD70B54FF0BC
:10086000FF0C4CF4E06C1CEA11541DBF1CEA13553C
:1008700094EA0C0F95EA0C0F00F0A7F8A4EB05041E
:1008800081EA030E52EA03354FEA013100F0888015
:100890004FEA03334FF0805545EA131343EA1263DE
:1008A0004FEA022245EA111545EA10654FEA002693
:1008B0000EF000419D4208BF964244F1FD0404F54C
:1008C000407402D25B084FEA3202B61A65EB0305A8
:1008D0005B084FEA32024FF480104FF4002CB6EB65
:1008E000020E75EB030E22BFB61A754640EA0C00E5
:1008F0005B084FEA3202B6EB020E75EB030E22BF25
:10090000B61A754640EA5C005B084FEA3202B6EB65
:10091000020E75EB030E22BFB61A754640EA9C0024
:100920005B084FEA3202B6EB020E75EB030E22BFF4
:10093000B61A754640EADC0055EA060E18D04FEAB2
:10094000051545EA16754FEA06164FEAC30343EA52
:1009500052734FEAC2025FEA1C1CC0D111F4801F1F
:100960000BD141EA00014FF000004FF0004CB6E718
:1009700011F4801F04BF01430020B4F1FD0C88BFB7
:10098000BCF5E06F3FF6AFAEB5EB030C04BFB6EBC2
:10099000020C5FEA500C50F1000041EB045170BDB5
:1009A0000EF0004E4EEA113114EB5C04C2BFD4EBE2
:1009B0000C0541EA045170BD41F480114FF0000E66
:1009C000013C90E645EA060E8DE60CEA135594EAE2
:1009D0000C0F08BF95EA0C0F3FF43BAF94EA0C0FE5
:1009E0000AD150EA01347FF434AF95EA0C0F7FF45A
:1009F00025AF104619462CE795EA0C0F06D152EAAE
:100A000003353FF4FDAE1046194622E750EA410691
:100A100018BF52EA43067FF4C5AE50EA41047FF4A2
:100A20000DAF52EA43057FF4EBAE12E74FF0FF3C07
:100A300006E000BF4FF0010C02E000BF4FF0010CD8
:100A40004DF804CD4FEA410C7FEA6C5C4FEA430C51
:100A500018BF7FEA6C5C1BD001B050EA410C0CBFA0
:100A600052EA430C91EA030F02BF90EA020F002002
:100A7000704710F1000F91EA030F58BF994208BF69
:100A800090422CBFD8176FEAE37040F00100704726
:100A90004FEA410C7FEA6C5C02D150EA013C07D17D
:100AA0004FEA430C7FEA6C5CD6D152EA033CD3D0C8
:100AB0005DF8040B704700BF8446104662468C46C2
:100AC0001946634600E000BF01B5FFF7B7FF0028F5
:100AD00048BF10F1000F01BD4DF808EDFFF7F4FF1E
:100AE0000CBF012000205DF808FB00BF4DF808EDA9
:100AF000FFF7EAFF34BF012000205DF808FB00BFCC
:100B00004DF808EDFFF7E0FF94BF012000205DF8ED
:100B100008FB00BF4DF808EDFFF7CEFF94BF0120A2
:100B200000205DF808FB00BF4DF808EDFFF7C4FF9B
:100B300034BF012000205DF808FB00BF4FEA410CE4
:100B40007FEA6C5C02D150EA013C0AD14FEA430CC7
:100B50007FEA6C5C02D152EA033C02D14FF0000004
:100B600070474FF0010070474FEA410212F5001242
:100B700015D211D56FF47873B3EB625212D94FEAE4
:100B8000C12343F0004343EA505311F0004F23FACE
:100B900002F018BF404270474FF00000704750EA23
:100BA000013005D111F0004008BF6FF000407047E0
:100BB0004FF00000704700BF53B94AB9002908BF81
:100BC00000281CBF4FF0FF314FF0FF3000F088B914
:100BD000ADF1080C6DE904CE00F006F8DDF804E094
:100BE000DDE9022304B070472DE9F047089D0F4668
:100BF00004468C46002B48D18A42164661D9B2FA87
:100C000082F34BB1C3F1200201FA03FC20FA02F295
:100C10009E4042EA0C0C9C404FEA164EB7B2BCFB19
:100C2000FEF1220C0EFB11CC42EA0C4201FB07F054
:100C3000904209D9B21801F1FF3C80F0EE80904259
:100C400040F2EB8002393244121AA4B2B2FBFEF039
:100C50000EFB102244EA024400FB07F7A74209D921
:100C6000341900F1FF3280F0DA80A74240F2D780D9
:100C70003444023840EA0140E41B00211DB1DC404D
:100C80000023C5E90043BDE8F0878B4206D90DB1CA
:100C9000C5E9000100210846BDE8F087B3FA83F1F9
:100CA000002948D1BB4202D3824200F20781841A54
:100CB00067EB030201209446002DE4D0C5E9004C07
:100CC000E1E7002A00F09280B2FA82F3002B40F0B4
:100CD000A8808A1A4FEA164E1FFA86FC0121200CC2
:100CE000B2FBFEF70EFB172240EA02420CFB07F0B4
:100CF000904207D9B21807F1FF3802D2904200F2B1
:100D0000E2804746121AA4B2B2FBFEF00EFB10229C
:100D100044EA02440CFB00FCA44507D9341900F155
:100D2000FF3202D2A44500F2CB801046A4EB0C04A3
:100D300040EA0740A2E7C1F120068B4022FA06FCF8
:100D40004CEA030C07FA01F420FA06F3F7404FEAE5
:100D50001C49234300FA01F81FFA8CFEB7FBF9F097
:100D60001C0C09FB107744EA074400FB0EF7A7426E
:100D700002FA01F20AD91CEB040400F1FF3A80F0F8
:100D80009B80A74240F2988002386444E41B9FB2E3
:100D9000B4FBF9F309FB134447EA044403FB0EFEDA
:100DA000A64509D91CEB040403F1FF3780F08280CB
:100DB000A6457FD9023B644443EA0040A4EB0E04FD
:100DC000A0FB02E7BC427346B94663D360D05DB175
:100DD000B8EB030264EB090404FA06F622FA01F305
:100DE0001E43CC40C5E9006400214CE76208480876
:100DF00042EAC1710B0C43EA00438AB242EA034261
:100E0000B3FBF6F1E407B4463746B6461F23B0FB02
:100E1000F6F0D21B41EA004161E7614614E7104653
:100E200028E7C3F1200120FA01F29E4027FA01F1E0
:100E30009F403A434FEA164E1FFA86FCB1FBFEF77D
:100E40000EFB1710110C41EA004107FB0CF8884516
:100E500004FA03F43AD9711807F1FF3001D288453A
:100E60001FD8A1EB0801B1FBFEF808FB0CF70EFB45
:100E7000181192B242EA0142BA422FD2B21808F1D6
:100E8000FF31C6D2BA42C4D2A8F102013244C0E74F
:100E9000F0459CD2BEEB020367EB0C070138B94664
:100EA00095E7A6EB08084144B81EB1FBFEF808FB25
:100EB0000CF7DCE73B467FE7504667E70846FBE672
:100EC0003444023832E7023F32441BE7A1EB080109
:100ED0003846B1FBFEF808FB0CF7C8E7414698E737
:100EE000704700BF80B584B000AF0346FB71FB794B
:100EF00003F01F03DBB2FB73002210210D4801F049
:100F000095FF07F10F01642301220B4805F017F844
:100F100007F10E0164230122074805F054F901226C
:100F20001021044801F082FFBB7B18461037BD46F4
:100F300080BD00BF000002407803002080B584B06F
:100F400000AF03460A46FB711346BB7197F90730A1
:100F500003F01F035BB243F020035BB2DBB23B73D1
:100F6000BB797B7300221021094801F05FFF07F174
:100F70000C0164230222074804F0E1FF0122102142
:100F8000034801F053FF00BF1037BD4680BD00BFCE
:100F9000000002407803002080B584B000AF034613
:100FA0003960FB711346BB7197F9073003F01F03DB
:100FB0005BB243F020035BB2DBB2FB730022102173
:100FC0000C4801F033FF07F10F01642301220A48A6
:100FD00004F0B5FFBB799AB264233968064804F07F
:100FE000AEFF01221021034801F020FF00BF10379F
:100FF000BD4680BD000002407803002080B582B06D
:1010000000AF002208211C4801F010FF012101203F
:10101000FFF794FF01210220FFF790FF0321032037
:10102000FFF78CFF73210520FFF788FF262106209C
:10103000FFF784FF0E211120FFF780FF0F4A3B4688
:1010400092E803001860043319703B4605221946E4
:101050000A20FFF7A1FF0F210020FFF76FFF0220FA
:1010600001F02AFC01220821034801F0DFFE00BF45
:101070000837BD4680BD00BF00000240C8E600083A
:1010800080B582B000AF0720FFF72CFF0346FB714D
:10109000FB79FF2B0AD0FB7903F04003002B05D02E
:1010A00040210720FFF74AFF012300E000231846F4
:1010B0000837BD4680BD000080B584B000AF7860C1
:1010C0006123FB7300221021154801F0AFFE07F1E8
:1010D0000F0164230122134804F031FF64230E2220
:1010E0007968104805F06FF8012210210C4801F0D2
:1010F0009DFEE223FB7300221021094801F096FEB9
:1011000007F10F0164230122064804F018FF0122B1
:101110001021034801F08AFE00BF1037BD4680BD94
:10112000000002407803002080B584B000AF7860F2
:10113000124B1B78002B1AD101F0B2FBF86009E0CA
:1011400001F0AEFB0246FB68D31A052B11D8012033
:1011500001F0B2FB7868FFF793F803469BB219469B
:10116000786809F049FE0346012BE9D002E000BF90
:1011700000E000BF1037BD4680BD00BF000000206A
:1011800080B594B000AFF860B9607A607B68DA68C7
:1011900007F110034E4918460AF0A0FF07F11003AB
:1011A0001846FFF7C1FFBB68002B05D1FB681B6821
:1011B0007A6812685A6316E0BB68042B05D1FB6895
:1011C0001A687B681B6893630DE0BB68082B05D128
:1011D000FB681A687B681B68D36304E0FB681A68C5
:1011E0007B681B6813644FF4FA7001F065FBBB6801
:1011F000002B05D1FB681B687A6852685A6316E0B9
:10120000BB68042B05D1FB681A687B685B68936335
:101210000DE0BB68082B05D1FB681A687B685B682A
:10122000D36304E0FB681A687B685B6813644FF45F
:10123000167001F041FBBB68002B05D1FB681B68F1
:101240007A6892685A6316E0BB68042B05D1FB6884
:101250001A687B689B6893630DE0BB68082B05D117
:10126000FB681A687B689B68D36304E0FB681A68B4
:101270007B689B6813644FF4167001F01DFBBB681C
:10128000002B05D1FB681B687A6812685A6316E068
:10129000BB68042B05D1FB681A687B681B689363E5
:1012A0000DE0BB68082B05D1FB681A687B681B68DA
:1012B000D36304E0FB681A687B681B6813644FF40F
:1012C000FA7001F0F9FA00BF5037BD4680BD00BF8B
:1012D00020E7000880B483B000AF03460A46FB80D5
:1012E0001346BB80B7F90620B7F904305B429A4237
:1012F00007DDB7F90620B7F904309A4201DA002376
:1013000001E0B7F9063018460C37BD465DF8047B9E
:10131000704780B489B000AFF860B9607A603B6014
:10132000FA68BB68D31AB96A3A688A1A03FB02F2F0
:101330007968BB68CB1A92FBF3F33A681344FB61FC
:10134000BA6A3B689342A8BF1346BB61BA6A3B685E
:101350009342B8BF13467B61FA69BB699A4201DACE
:10136000BB6906E0FA697B699A4201DD7B6900E0AE
:10137000FB6918462437BD465DF8047B70470000C2
:10138000B0B52DED028BADF5047D06AF01F022FA6C
:1013900000F026FC00F008FE00F0BCFC00F0E0FDD0
:1013A00009F06CFC00F0ECFC00F076FD00F084FC31
:1013B00001221021A64801F039FD00220821A4488D
:1013C00001F034FDA348FFF7AFFE0023C7F8F43166
:1013D0000123A7F8F23122E0B7F8F2315B0099B2AD
:1013E0000A2302229C4802F0ABF90346002B11D1DC
:1013F000B7F8F22107F5B273984918460AF06EFE65
:1014000007F5B2731846FFF78FFED7F8F4310133B2
:10141000C7F8F431B7F8F2310133A7F8F231B7F871
:10142000F2317F2BD8D9D7F8F431002B03D18C4877
:10143000FFF77AFE02E08B48FFF776FE07F5A2730E
:10144000DFED892A9FED892ADFED891A9FED891A40
:10145000DFED890AB2EE0E0A184600F025FE07F508
:101460009273DFED812A9FED812ADFED811A9FEDD6
:10147000811ADFED810AB2EE0E0A184600F014FE62
:101480004FF47A7001F018FA00217C4805F03EFB19
:1014900004217A4805F03AFB0821784805F036FB2C
:1014A0000821774805F032FB0C21754805F02EFB2A
:1014B000724B1B68734A12689A63704B1B68724ABE
:1014C0001268DA636E4B1B68704A1268DA636C4B01
:1014D0001B686F4A12681A646E48FFF725FE6E4853
:1014E000FFF722FE6D48FFF71FFE64230222D02182
:1014F000594802F025F90346002B3BD16848FFF715
:1015000013FE07F5FC73A3F2651300221A7064231F
:1015100002930123019307F19303009301237522A2
:10152000D0214D4801F0DAFE07F5FC73A3F26513F4
:101530001B781A463B1D5B4918460AF0CFFD3B1D40
:101540001846FFF7F1FD07F5FC73A3F5B37300220E
:101550001A70642302930123019307F1920300930D
:1015600001236B22D0213C4801F0BEFD4E48FFF71D
:10157000DBFD02E04D48FFF7D7FD404B1B684FF401
:1015800061725A634FF47A6001F096F94848FFF7A8
:10159000CBFD3A4B1B6840F27E425A6340F2DC506E
:1015A00001F08AF9354B1B684FF461725A634FF4AE
:1015B0007A7001F081F93F48FFF7B6FD314A042106
:1015C0002E48FFF7DDFD304A08212C48FFF7D8FDF3
:1015D0002E4A08212A48FFF7D3FD2D4A0C2128481E
:1015E000FFF7CEFD3448FFF79FFDFFF707FD07200B
:1015F000FFF778FC034687F8D7310620FFF772FC27
:10160000034687F8D6310520FFF76CFC034687F8C0
:10161000D53197F8D72197F8D61197F8D53107F13A
:10162000A40000930B4625490AF058FD07F1A403D6
:101630001846FFF779FD97F8D731002B03D097F8BC
:10164000D731FF2B3ED11E48FFF76EFD3DE000BFB6
:101650000000024030E700082403002058E700089B
:1016600084E70008C0E700080000C84200007A4490
:1016700000007AC4CDCCCC3D00000000D003002097
:101680001804002004000020140000202400002082
:1016900034000020DCE70008F8E7000820E8000834
:1016A00038E8000868E8000898E80008B8E800088A
:1016B000E8E8000800E9000820E9000850E900080F
:1016C00084E900086548FFF72FFD01224FF400511F
:1016D000634801F0ABFB4FF00003C7F8EC314FF06B
:1016E0000003C7F8E8314FF00003C7F8E4314FF4C6
:1016F0007E43A7F8D23140F2FF13A7F8D031FFF7AD
:10170000BFFC0346002B00F0B68007F19403184697
:10171000FFF7D2FC01F0C4F80346524A136007F504
:10172000FC73A3F5B273B3F9003064211846FFF7D8
:10173000D1FD03461A4607F5FC73A3F5B2731A8070
:1017400007F5FC73A3F5B273B3F9023064211846B0
:10175000FFF7C0FD03461A4607F5FC73A3F5B27305
:101760005A8007F5FC73A3F5B273B3F90430642112
:101770001846FFF7AFFD03461A4607F5FC73A3F5BD
:10178000B2739A8007F5FC73A3F5B273B3F9063010
:1017900064211846FFF79EFD03461A4607F5FC73C1
:1017A000A3F5B273DA8007F5FC73A3F5B273B3F94E
:1017B00002301846B7F9D211B7F9D0212D23009382
:1017C0006FF02C03FFF7A5FD07EE900AF8EEE77A1D
:1017D000C7ED7B7A07F5FC73A3F5B273B3F9063056
:1017E0001846B7F9D211B7F9D0212D2300936FF025
:1017F0002C03FFF78EFD07EE900AF8EEE77AC7EDAF
:101800007A7A07F5FC73A3F5B273B3F9003007EEEB
:10181000903AF8EEE77AC7ED797A07F5FC73A3F50D
:10182000B2731B7B012B21D107F5FC73A3F5B273B7
:10183000B3F90A3018464FF4FA6300934FF461731A
:1018400040F2FF320021FFF764FD0346C7F8CC31B8
:10185000054B1B68D7F8CC215A630CE0ACE90008B3
:1018600000080240A8040020D0030020C44B1B68DD
:101870004FF461725A6301F013F80246C14B1B68C2
:10188000D31AB3F5FA7F1BD9BD4B1B684FF46172B5
:101890005A634FF00003C7F8EC31BB4BC7F8E8318F
:1018A000BA4B1A68B94B9968B84B1B68CB1A9B089E
:1018B0001344C7F8C831B64B1B68D7F8C8211A645F
:1018C00000F0EEFF0246B34B1B68D31A142B7FF6D1
:1018D00016AF00F0E5FF0246AE4B1B68D31A07EEC9
:1018E000903AB8EE677ADFEDAC6AC7EE267AC7EDBC
:1018F000717A00F0D5FF0346A64A13606423029371
:101900000E23019307F18403009301233B22D0218E
:10191000A24801F0E3FC0346002B7FF4F0AE07F58C
:10192000FC73A3F5BA731B781BB21B021AB207F53E
:10193000FC73A3F5BA735B781BB213431BB207EEBB
:10194000903AF8EEE77AC7ED707A07F5FC73A3F5E5
:10195000BA739B781BB21B021AB207F5FC73A3F58E
:10196000BA73DB781BB213431BB207EE903AF8EE62
:10197000E77AC7ED6F7A07F5FC73A3F5BA731B79A5
:101980001BB21B021AB207F5FC73A3F5BA735B799D
:101990001BB213431BB207EE903AF8EEE77AC7ED9D
:1019A0006E7AD7ED6E0A97ED6F0A0CF0D7FCF0EE69
:1019B000407A9FED7B7A67EE877AC7ED6D7AD7ED37
:1019C000707AB1EE678AD7ED6F7A27EEA77AD7EDF6
:1019D0006E7A67EEA77A77EE277AB0EE670A0CF098
:1019E000BFFCF0EE407AF0EE670AB0EE480A0CF069
:1019F000B5FCF0EE407A9FED6A7A67EE877AC7ED24
:101A00006C7A07F5A27397ED711AD7ED6D0A97ED11
:101A10007B0A184600F072FB87ED6B0A07F592739C
:101A200097ED711AD7ED6C0A97ED7A0A184600F017
:101A300065FB87ED6A0A5B4B1B68D7ED6B7AFDEEA1
:101A4000E77A17EE902A1344C7F8E031564B1B682B
:101A5000D7ED6B7AFDEEE77A17EE902A1344C7F8BC
:101A6000DC31524B1B68D7ED6A7AFDEEE77A17EE50
:101A7000902A1344C7F8D831D7ED797AFDEEE77A8A
:101A8000B7F9D211B7F9D021404B5B6818463F4BEC
:101A90009B680093034617EE900AFFF73AFCC7F8DD
:101AA000A401404B9A68D7F8E0319A4203D23D4BEB
:101AB0009B68C7F8E0313B4B5A68D7F8E0319A424F
:101AC00003D9384B5B68C7F8E031374B9A68D7F8D1
:101AD000DC319A4203D2344B9B68C7F8DC31324B7D
:101AE0005A68D7F8DC319A4203D92F4B5B68C7F8A4
:101AF000DC312E4B9A68D7F8D8319A4203D22B4B5F
:101B00009B68C7F8D831294B5A68D7F8D8319A4220
:101B100003D9264B5B68C7F8D831194B1B68D7F837
:101B2000E0219A63164B1B68D7F8DC21DA63184B67
:101B30001B68D7F8D821DA63154B1B68D7F8A421A6
:101B40001A6400F0ADFE0246194B1B68D31AB3F5B8
:101B5000FA7F7FF6D4AD00F0A3FE0346144A13606B
:101B6000D7F8B401FEF7F8FC04460D46D7F8B001EB
:101B7000FEF7F2FC02460B46381DD7F8D81119E0E3
:101B8000D0030020A80400200000204134000020E1
:101B900018040020AC04002000007A442403002034
:101BA000E02E6542040000201400002024000020E4
:101BB000B00400200491CDE90223D7F8DC31019371
:101BC000D7F8E031009322462B4604490AF086FA02
:101BD0003B1D1846FFF7A8FA91E500BFCCE90008C5
:101BE00080B594B000AF07F12003302200211846E1
:101BF0000AF0DAFA07F10C0300221A605A609A60C0
:101C0000DA601A610023BB60294B1B6C284A43F041
:101C100080531364264B1B6C03F08053BB60BB687E
:101C200000237B60234B1B6823F44043214A43F489
:101C3000004313601F4B1B6803F440437B607B68C9
:101C400001233B624FF480337B620223BB634FF47A
:101C50008003FB6319233B644FF4A8737B64042364
:101C6000BB640723FB6407F12003184603F09CFCC8
:101C70000346002B01D000F011FA0F23FB60022372
:101C80003B6100237B614FF48053BB610023FB6108
:101C900007F10C030221184603F0FEFE0346002B59
:101CA00001D000F0FBF900BF5037BD4680BD00BF3A
:101CB000003802400070004080B500AF124B134A5C
:101CC0001A60114B124A5A600F4B00229A600E4B59
:101CD0000022DA600C4B4FF480421A610A4B00225A
:101CE0005A61094B00229A61074B0022DA61064BC8
:101CF00000221A62044801F0B3F80346002B01D019
:101D000000F0CCF900BF80BD240300200054004047
:101D1000A086010080B500AF174B184A1A60164B19
:101D20004FF482725A60144B00229A60124B0022C8
:101D3000DA60114B00221A610F4B00225A610E4BE0
:101D40004FF400729A610C4B1022DA610A4B0022A8
:101D50001A62094B00225A62074B00229A62064B14
:101D60000A22DA62044804F061F80346002B01D02D
:101D700000F094F900BF80BD7803002000300140DE
:101D800080B58EB000AF07F1280300221A605A60B8
:101D90009A60DA6007F1200300221A605A603B1D46
:101DA00000221A605A609A60DA601A615A619A6178
:101DB000384B4FF080421A60364B53225A60354BF5
:101DC00000229A60334B44F61F62DA60314B0022E6
:101DD0001A61304B00229A612E4804F0F9FD034647
:101DE000002B01D000F05AF94FF48053BB6207F189
:101DF00028031946274804F0FBFF0346002B01D0B7
:101E000000F04CF9234804F032FE0346002B01D0C9
:101E100000F044F900233B6200237B6207F12003BA
:101E200019461C4805F07EFB0346002B01D000F04C
:101E300035F960237B600023BB600023FB60002337
:101E40007B613B1D00221946124804F00FFF034638
:101E5000002B01D000F022F93B1D042219460D4849
:101E600004F004FF0346002B01D000F017F93B1DDE
:101E700008221946074804F0F9FE0346002B01D05A
:101E800000F00CF9034800F009FB00BF3837BD46ED
:101E900080BD00BFD003002080B58AB000AF07F13D
:101EA000200300221A605A603B1D00221A605A600B
:101EB0009A60DA601A615A619A61274B274A1A6060
:101EC000254B53225A60244B00229A60224B44F641
:101ED0001F62DA60204B00221A611F4B00229A61B8
:101EE0001D4804F0C4FD0346002B01D000F0D6F8D5
:101EF00000233B6200237B6207F12003194616484A
:101F000005F010FB0346002B01D000F0C7F860235A
:101F10007B600023BB600023FB6000237B613B1DD3
:101F2000082219460C4804F0A1FE0346002B01D0FC
:101F300000F0B4F83B1D0C221946074804F096FE49
:101F40000346002B01D000F0A9F8034800F0A6FAE0
:101F500000BF2837BD4680BD1804002000040040A3
:101F600080B500AF0E4B0F4A1A600D4B53225A60DA
:101F70000B4B00229A600A4B4FF6FF72DA60084B57
:101F800000221A61064B00229A61054804F020FDE8
:101F90000346002B01D000F081F800BF80BD00BFD8
:101FA000600400200048014080B58AB000AF07F10E
:101FB000140300221A605A609A60DA601A610023E2
:101FC0003B61334B1B6B324A43F004031363304BCA
:101FD0001B6B03F004033B613B690023FB602C4B4C
:101FE0001B6B2B4A43F080031363294B1B6B03F0DD
:101FF0008003FB60FB680023BB60254B1B6B244AFE
:1020000043F001031363224B1B6B03F00103BB601E
:10201000BB6800237B601E4B1B6B1D4A43F0020311
:1020200013631B4B1B6B03F002037B607B68002276
:102030004FF40051174800F0F9FE0122082116481C
:1020400000F0F4FE00221021134800F0EFFE4FF4E0
:1020500000537B610123BB610023FB6100233B62D2
:1020600007F1140319460B4800F05CFD18237B614F
:102070000123BB610023FB6100233B6207F11403D2
:102080001946054800F04EFD00BF2837BD4680BD0B
:1020900000380240000802400000024080B400AF57
:1020A00072B600BF00BFFDE780B588B000AFF86131
:1020B00087ED060AC7ED050A87ED041AC7ED031A76
:1020C00087ED022AC7ED012AFB69BA691A60FB692C
:1020D0007A695A60FB693A699A60FB69FA685A61E1
:1020E000FB69BA689A61FB697A68DA61F86900F09D
:1020F000B3F800BF2037BD4680BD000080B48BB070
:1021000000AFF86087ED020AC7ED010A87ED001AFB
:1021100097ED027AD7ED017A77EE677AC7ED087A04
:10212000D7ED007AF5EEC07AF1EE10FA01D8494BFE
:102130003B60FB68D3ED007A97ED087A67EE277A6B
:10214000C7ED077AFB6893ED037AD7ED086AD7ED00
:10215000007A66EEA77A77EE277AFB68C3ED037AFA
:10216000FB6893ED037AFB68D3ED077AB4EEE77A68
:10217000F1EE10FA04DDFB68DA69FB68DA6014E05E
:10218000FB6893ED037AFB68D3ED077AF1EE677A8B
:10219000B4EEE77AF1EE10FA07D5FB68D3ED077AD3
:1021A000F1EE677AFB68C3ED037AFB6893ED017A81
:1021B000FB68D3ED037A67EE277AC7ED067AFB68F2
:1021C000D3ED047A97ED087A77EE676A97ED007A97
:1021D000C6EE877AC7ED057AFB68D3ED027A97EDF4
:1021E000057A67EE277AC7ED047AFB683A6A1A61C6
:1021F00097ED077AD7ED067A77EE277A97ED047A8E
:1022000077EE277AC7ED097AFB68D3ED067A97ED6A
:10221000097AB4EEE77AF1EE10FA03DDFB689B6908
:102220007B620CE0FB68D3ED057A97ED097AB4EE9A
:10223000E77AF1EE10FA02D5FB685B697B627B6A94
:1022400007EE903AB0EE670A2C37BD465DF8047B86
:10225000704700BF6F12833A80B483B000AF7860DC
:102260007B684FF00002DA607B684FF000021A6171
:1022700000BF0C37BD465DF8047B704780B483B067
:1022800000AF00237B60104B5B6C0F4A43F480432C
:1022900053640D4B5B6C03F480437B607B680023CD
:1022A0003B60094B1B6C084A43F080531364064B98
:1022B0001B6C03F080533B603B6800BF0C37BD468E
:1022C0005DF8047B704700BF0038024080B58AB0DB
:1022D00000AF786007F1140300221A605A609A6018
:1022E000DA601A617B681B68194A93422BD100237C
:1022F0003B61184B1B6B174A43F002031363154BEA
:102300001B6B03F002033B613B69C0237B6112231B
:10231000BB610123FB6103233B6204237B6207F162
:10232000140319460C4800F0FDFB0023FB60094B29
:102330001B6C084A43F400131364064B1B6C03F434
:102340000013FB60FB6800BF2837BD4680BD00BF9F
:1023500000540040003802400004024080B58AB0BA
:1023600000AF786007F1140300221A605A609A6087
:10237000DA601A617B681B68194A93422BD10023EB
:102380003B61184B5B6C174A43F480535364154B05
:102390005B6C03F480533B613B690023FB60114B92
:1023A0001B6B104A43F0010313630E4B1B6B03F0CE
:1023B0000103FB60FB68E0237B610223BB61002318
:1023C000FB6103233B6205237B6207F1140319467B
:1023D000054800F0A7FB00BF2837BD4680BD00BF01
:1023E00000300140003802400000024080B485B057
:1023F00000AF78607B681B68B3F1804F0ED100237B
:10240000FB60134B1B6C124A43F001031364104B27
:102410001B6C03F00103FB60FB6812E07B681B6828
:102420000C4A93420DD10023BB60094B5B6C084AF8
:1024300043F480235364064B5B6C03F48023BB603E
:10244000BB6800BF1437BD465DF8047B704700BF12
:10245000003802400048014080B485B000AF786089
:102460007B681B680B4A93420DD10023FB600A4B2B
:102470001B6C094A43F002031364074B1B6C03F007
:102480000203FB60FB6800BF1437BD465DF8047BA8
:10249000704700BF000400400038024080B58AB099
:1024A00000AF786007F1140300221A605A609A6046
:1024B000DA601A617B681B68B3F1804F1ED100237C
:1024C0003B61224B1B6B214A43F0010313631F4BFB
:1024D0001B6B03F001033B613B6907237B61022314
:1024E000BB610023FB6100233B6201237B6207F198
:1024F00014031946164800F015FB22E07B681B68A0
:10250000144A93421DD10023FB60104B1B6B0F4AF2
:1025100043F0020313630D4B1B6B03F00203FB60DC
:10252000FB6803237B610223BB610023FB61002363
:102530003B6202237B6207F114031946064800F050
:10254000F1FA00BF2837BD4680BD00BF0038024009
:1025500000000240000400400004024080B400AFCC
:1025600000BFFDE780B400AF00BFFDE780B400AF5F
:1025700000BFFDE780B400AF00BFFDE780B400AF4F
:1025800000BFFDE780B400AF00BFBD465DF8047B2F
:10259000704780B400AF00BFBD465DF8047B704754
:1025A00080B400AF00BFBD465DF8047B704780B5C6
:1025B00000AF00F061F900BF80BD000080B500AF42
:1025C000024801F0E3FE00BF80BD00BF9C11002067
:1025D00080B400AF01231846BD465DF8047B704708
:1025E00080B582B000AF7860396009F02FFE0346F5
:1025F00016221A604FF0FF3318460837BD4680BDDB
:1026000080B582B000AF78604FF0FF317868FFF797
:10261000E7FF00BFFDE780B586B000AFF860B960A6
:102620007A6000237B610AE0AFF300800146BB685B
:102630005A1CBA60CAB21A707B6901337B617A692D
:102640007B689A42F0DB7B6818461837BD4680BD30
:1026500080B586B000AFF860B9607A6000237B6116
:1026600009E0BB685A1CBA601B781846AFF30080BB
:102670007B6901337B617A697B689A42F1DB7B6815
:1026800018461837BD4680BD80B483B000AF78606F
:102690004FF0FF3318460C37BD465DF8047B70479A
:1026A00080B483B000AF786039603B684FF400526B
:1026B0005A60002318460C37BD465DF8047B70470E
:1026C00080B483B000AF7860012318460C37BD4654
:1026D0005DF8047B704780B485B000AFF860B960E6
:1026E0007A60002318461437BD465DF8047B7047B6
:1026F00080B586B000AF7860144A154BD31A7B6161
:102700007B693B61134B1B68002B02D1114B124AB2
:102710001A60104B1A687B6813443A699A4207D2D0
:1027200009F094FD03460C221A604FF0FF3309E0D4
:10273000084B1B68FB60074B1A687B681344054A0B
:102740001360FB6818461837BD4680BD00000120A5
:1027500000040000B4040020F019002080B400AF91
:10276000064BD3F88830054A43F47003C2F888302A
:1027700000BFBD465DF8047B704700BF00ED00E080
:10278000DFF834D0FFF7EAFF0C480D490D4A00236B
:1027900002E0D458C4500433C4188C42F9D30A4A16
:1027A0000A4C002301E013600432A242FBD309F07B
:1027B00053FDFEF7E5FD70470000012000000020FA
:1027C000080300203CEE000808030020EC1900205C
:1027D000FEE7000080B500AF0E4B1B680D4A43F4C6
:1027E000007313600B4B1B680A4A43F48063136049
:1027F000084B1B68074A43F480731360032000F002
:102800004FF90F2000F008F8FFF738FD00231846B5
:1028100080BD00BF003C024080B582B000AF786050
:10282000124B1A68124B1B7819464FF47A73B3FB9C
:10283000F1F3B2FBF3F3184600F067F90346002BFF
:1028400001D001230EE07B680F2B0AD800227968A3
:102850004FF0FF3000F02FF9064A7B681360002329
:1028600000E0012318460837BD4680BD4400002023
:102870004C0000204800002080B400AF064B1B78BD
:102880001A46064B1B681344044A136000BFBD463A
:102890005DF8047B704700BF4C000020B8040020A6
:1028A00080B400AF034B1B681846BD465DF8047B3F
:1028B000704700BFB804002080B584B000AF7860D6
:1028C000FFF7EEFFB8607B68FB60FB68B3F1FF3F8A
:1028D00005D00A4B1B781A46FB681344FB6000BF07
:1028E000FFF7DEFF0246BB68D31AFA689A42F7D8B0
:1028F00000BF00BF1037BD4680BD00BF4C000020A8
:1029000080B485B000AF78607B6803F00703FB609C
:102910000C4BDB68BB60BA684FF6FF031340BB602B
:10292000FB681A02BB68134343F0BF6343F40033F0
:10293000BB60044ABB68D36000BF1437BD465DF876
:10294000047B704700ED00E080B400AF044BDB680F
:102950001B0A03F007031846BD465DF8047B704769
:1029600000ED00E080B483B000AF0346FB7197F93F
:102970000730002B0BDBFB7903F01F02074997F9A7
:1029800007305B09012000FA02F241F8232000BF62
:102990000C37BD465DF8047B704700BF00E100E0E6
:1029A00080B483B000AF03463960FB7197F90730FC
:1029B000002B0ADB3B68DAB20C4997F907301201A9
:1029C000D2B20B4483F800230AE03B68DAB208492C
:1029D000FB7903F00F03043B1201D2B20B441A76C9
:1029E00000BF0C37BD465DF8047B704700E100E096
:1029F00000ED00E080B489B000AFF860B9607A60A3
:102A0000FB6803F00703FB61FB69C3F10703042BB9
:102A100028BF0423BB61FB690433062B02D9FB6981
:102A2000033B00E000237B614FF0FF32BB6902FAF9
:102A300003F3DA43BB681A407B699A404FF0FF31D9
:102A40007B6901FA03F3D9437B680B4013431846B3
:102A50002437BD465DF8047B7047000080B582B026
:102A600000AF78607B68013BB3F1807F01D3012325
:102A70000FE00A4A7B68013B53600F214FF0FF30A3
:102A8000FFF78EFF054B00229A60044B07221A6065
:102A9000002318460837BD4680BD00BF10E000E0A7
:102AA00080B582B000AF78607868FFF729FF00BF7B
:102AB0000837BD4680BD80B586B000AF0346B9601B
:102AC0007A60FB7300237B61FFF73EFF78617A68D1
:102AD000B9687869FFF78EFF024697F90F30114603
:102AE0001846FFF75DFF00BF1837BD4680BD80B5B3
:102AF00082B000AF0346FB7197F907301846FFF725
:102B000031FF00BF0837BD4680BD80B582B000AF41
:102B100078607868FFF7A2FF034618460837BD467D
:102B200080BD000080B489B000AF786039600023B8
:102B30007B6100233B610023BB610023FB6159E102
:102B40000122FB6902FA03F37B613B681B687A6927
:102B500013403B613A697B699A4240F048813B6887
:102B60005B6803F00303012B05D03B685B6803F04F
:102B70000303022B30D17B689B68BB61FB695B0060
:102B8000032202FA03F3DB43BA691340BB613B68DB
:102B9000DA68FB695B0002FA03F3BA691343BB61AD
:102BA0007B68BA699A607B685B68BB610122FB69DC
:102BB00002FA03F3DB43BA691340BB613B685B680D
:102BC0001B0903F00102FB6902FA03F3BA6913431C
:102BD000BB617B68BA695A603B685B6803F00303BA
:102BE000032B17D07B68DB68BB61FB695B000322AA
:102BF00002FA03F3DB43BA691340BB613B689A688E
:102C0000FB695B0002FA03F3BA691343BB617B689B
:102C1000BA69DA603B685B6803F00303022B23D1D7
:102C2000FB69DA087B68083253F82230BB61FB6924
:102C300003F007039B000F2202FA03F3DB43BA6998
:102C40001340BB613B681A69FB6903F007039B00F3
:102C500002FA03F3BA691343BB61FB69DA087B68C4
:102C60000832B96943F822107B681B68BB61FB69B5
:102C70005B00032202FA03F3DB43BA691340BB6132
:102C80003B685B6803F00302FB695B0002FA03F335
:102C9000BA691343BB617B68BA691A603B685B68B9
:102CA00003F44033002B00F0A2800023FB60574B5D
:102CB0005B6C564A43F480435364544B5B6C03F49F
:102CC0008043FB60FB68524AFB699B08023352F861
:102CD0002330BB61FB6903F003039B000F2202FA60
:102CE00003F3DB43BA691340BB617B68494A9342F3
:102CF00019D07B68484A934213D07B68474A934275
:102D00000DD07B68464A934207D07B68454A934280
:102D100001D1042308E0072306E0032304E0022393
:102D200002E0012300E00023FA6902F003029200AE
:102D30009340BA691343BB613549FB699B08023371
:102D4000BA6941F82320384B9B68BB613B69DB4380
:102D5000BA691340BB613B685B6803F48013002BC6
:102D600003D0BA693B691343BB612F4ABB699360C7
:102D70002D4BDB68BB613B69DB43BA691340BB6128
:102D80003B685B6803F40013002B03D0BA693B690E
:102D90001343BB61244ABB69D360234B5B68BB61AF
:102DA0003B69DB43BA691340BB613B685B6803F472
:102DB0000033002B03D0BA693B691343BB611A4A45
:102DC000BB695360184B1B68BB613B69DB43BA6945
:102DD0001340BB613B685B6803F48033002B03D076
:102DE000BA693B691343BB610F4ABB691360FB6956
:102DF0000133FB61FB690F2B7FF6A2AE00BF00BF62
:102E00002437BD465DF8047B704700BF00380240A0
:102E10000038014000000240000402400008024067
:102E2000000C024000100240003C014080B483B01E
:102E300000AF78600B467B8013467B707B78002B5D
:102E400003D07A887B689A6103E07B881A047B68E8
:102E50009A6100BF0C37BD465DF8047B70470000E7
:102E600080B584B000AF78607B68002B01D101236E
:102E70002BE17B6893F83D30DBB2002B06D17B68F9
:102E8000002283F83C207868FFF720FA7B68242230
:102E900083F83D207B681B681A687B681B6822F0FA
:102EA00001021A607B681B681A687B681B6842F421
:102EB00000421A607B681B681A687B681B6822F4F2
:102EC00000421A6002F09EFFF8607B685B68814AEE
:102ED000934207D8FB68804A934294BF01230023A2
:102EE000DBB206E0FB687D4A934294BF01230023D6
:102EF000DBB2002B01D00123E7E0FB68784AA2FB9C
:102F000003239B0CBB607B681B685B6823F03F015D
:102F10007B681B68BA680A435A607B681B681B6A37
:102F200023F03F017B685B686A4A934202D8BB6822
:102F3000013309E0BB684FF4967202FB03F3694A60
:102F4000A2FB03239B0901337A6812680B431362C7
:102F50007B681B68DB6923F44F4222F0FF027B6829
:102F60005B685C498B4219D8FB68591E7B685B68BB
:102F70005B00B1FBF3F3591C40F6FC730B40002BD4
:102F80000AD0FB68591E7B685B685B00B1FBF3F3FA
:102F90000133C3F30B0351E004234FE07B689B68CC
:102FA000002B11D1FB68581E7B6859680B465B00EB
:102FB0000B44B0FBF3F30133C3F30B03002B0CBF43
:102FC00001230023DBB212E0FB68581E7B685968BE
:102FD0000B469B000B4499000B44B0FBF3F3013309
:102FE000C3F30B03002B0CBF01230023DBB2002B28
:102FF00001D0012322E07B689B68002B0ED1FB6887
:10300000581E7B6859680B465B000B44B0FBF3F31A
:103010000133C3F30B0343F400430FE0FB68581E76
:103020007B6859680B469B000B4499000B44B0FB2E
:10303000F3F30133C3F30B0343F4404379680968A6
:103040001343CB617B681B681B6823F0C0017B685E
:10305000DA697B681B6A1A437B681B680A431A603B
:103060007B681B689B6823F4034323F0FF037A68A3
:1030700011697A68D26811437A6812680B439360C9
:103080007B681B68DB6823F0FF017B685A697B68FB
:103090009B691A437B681B680A43DA607B681B687C
:1030A0001A687B681B6842F001021A607B68002284
:1030B0001A647B68202283F83D207B6800221A6313
:1030C0007B68002283F83E20002318461037BD4657
:1030D00080BD00BFA08601007F841E00FF083D0068
:1030E00083DE1B43D34D621080B588B002AFF86019
:1030F000084611461A4603467B810B463B81134620
:10310000FB80FFF7CDFB7861FB6893F83D30DBB2C5
:10311000202B40F0D9807B690093192301226D494F
:10312000F86800F0B9FD0346002B01D00223CCE083
:10313000FB6893F83C30012B01D10223C5E0FB680A
:10314000012283F83C20FB681B681B6803F0010325
:10315000012B07D0FB681B681A68FB681B6842F0EC
:1031600001021A60FB681B681A68FB681B6822F47E
:1031700000621A60FB68212283F83D20FB68402230
:1031800083F83E20FB6800221A64FB683A6A5A62A0
:10319000FB68BA8C5A85FB685B8D9AB2FB681A850E
:1031A000FB684D4ADA62F8883A8979897B6901932C
:1031B000BB6A00930346F86800F0F0FB0346002B5F
:1031C00052D0012381E07A69B96AF86800F07EFE86
:1031D0000346002B0DD0FB681B6C042B07D1FB684A
:1031E0001B681A68FB681B6842F400721A600123AE
:1031F0006BE0FB685B6A1A78FB681B681A61FB6806
:103200005B6A5A1CFB685A62FB681B8D013B9AB2D1
:10321000FB681A85FB685B8D9BB2013B9AB2FB6829
:103220005A85FB681B685B6903F00403042B1BD100
:10323000FB681B8D002B17D0FB685B6A1A78FB6854
:103240001B681A61FB685B6A5A1CFB685A62FB6860
:103250001B8D013B9AB2FB681A85FB685B8D9BB2A4
:10326000013B9AB2FB685A85FB681B8D002BAAD1E3
:103270007A69B96AF86800F071FE0346002B0DD038
:10328000FB681B6C042B07D1FB681B681A68FB6882
:103290001B6842F400721A60012316E0FB681B6889
:1032A0001A68FB681B6842F400721A60FB682022EF
:1032B00083F83D20FB68002283F83E20FB68002253
:1032C00083F83C20002300E0022318461837BD464F
:1032D00080BD00BF020010000000FFFF80B58CB071
:1032E00002AFF860084611461A4603467B810B463A
:1032F0003B811346FB80FFF7D3FA7862FB6893F8B3
:103300003D30DBB2202B40F014827B6A00931923FE
:1033100001227B49F86800F0BFFC0346002B01D076
:10332000022307E2FB6893F83C30012B01D1022312
:1033300000E2FB68012283F83C20FB681B681B68E5
:1033400003F00103012B07D0FB681B681A68FB68B8
:103350001B6842F001021A60FB681B681A68FB6870
:103360001B6822F400621A60FB68222283F83D2069
:10337000FB68402283F83E20FB6800221A64FB6849
:103380003A6B5A62FB68BA8E5A85FB685B8D9AB2BB
:10339000FB681A85FB685B4ADA62F8883A897989A2
:1033A0007B6A0193BB6B00930346F86800F08CFBCB
:1033B0000346002B01D00123BCE1FB681B8D002BD1
:1033C00013D100233B62FB681B685B693B62FB68AF
:1033D0001B689B693B623B6AFB681B681A68FB6859
:1033E0001B6842F400721A6090E1FB681B8D012B90
:1033F0001BD1FB681B681A68FB681B6822F480629B
:103400001A600023FB61FB681B685B69FB61FB685A
:103410001B689B69FB61FB69FB681B681A68FB689A
:103420001B6842F400721A6070E1FB681B8D022B6E
:103430001BD1FB681B681A68FB681B6822F480625A
:103440001A60FB681B681A68FB681B6842F400621C
:103450001A600023BB61FB681B685B69BB61FB688A
:103460001B689B69BB61BB6950E100237B61FB6802
:103470001B685B697B61FB681B689B697B617B697F
:1034800044E1FB681B8D032B00F2F180FB681B8D70
:10349000012B23D17A6AB96BF86800F0A7FD0346C7
:1034A000002B01D0012345E1FB681B681A69FB680A
:1034B0005B6AD2B21A70FB685B6A5A1CFB685A627C
:1034C000FB681B8D013B9AB2FB681A85FB685B8D1C
:1034D0009BB2013B9AB2FB685A8517E1FB681B8DD2
:1034E000022B4ED17B6A0093BB6B00220649F86821
:1034F00000F0D2FB0346002B08D001231AE100BFE5
:10350000020010000000FFFF04000100FB681B68C0
:103510001A68FB681B6842F400721A60FB681B683B
:103520001A69FB685B6AD2B21A70FB685B6A5A1C44
:10353000FB685A62FB681B8D013B9AB2FB681A85D7
:10354000FB685B8D9BB2013B9AB2FB685A85FB68B6
:103550001B681A69FB685B6AD2B21A70FB685B6A07
:103560005A1CFB685A62FB681B8D013B9AB2FB68D0
:103570001A85FB685B8D9BB2013B9AB2FB685A854A
:10358000C4E07B6A0093BB6B00226C49F86800F0D2
:1035900083FB0346002B01D00123CBE0FB681B68B3
:1035A0001A68FB681B6822F480621A60FB681B685B
:1035B0001A69FB685B6AD2B21A70FB685B6A5A1CB4
:1035C000FB685A62FB681B8D013B9AB2FB681A8547
:1035D000FB685B8D9BB2013B9AB2FB685A857B6AA4
:1035E0000093BB6B00225549F86800F055FB034679
:1035F000002B01D001239DE0FB681B681A68FB6863
:103600001B6842F400721A60FB681B681A69FB6849
:103610005B6AD2B21A70FB685B6A5A1CFB685A621A
:10362000FB681B8D013B9AB2FB681A85FB685B8DBA
:103630009BB2013B9AB2FB685A85FB681B681A690A
:10364000FB685B6AD2B21A70FB685B6A5A1CFB6843
:103650005A62FB681B8D013B9AB2FB681A85FB68B6
:103660005B8D9BB2013B9AB2FB685A854EE07A6A49
:10367000B96BF86800F0BAFC0346002B01D00123B7
:1036800058E0FB681B681A69FB685B6AD2B21A7063
:10369000FB685B6A5A1CFB685A62FB681B8D013B26
:1036A0009AB2FB681A85FB685B8D9BB2013B9AB2AC
:1036B000FB685A85FB681B685B6903F00403042BF5
:1036C00024D1FB681B8D032B07D1FB681B681A688C
:1036D000FB681B6822F480621A60FB681B681A6929
:1036E000FB685B6AD2B21A70FB685B6A5A1CFB68A3
:1036F0005A62FB681B8D013B9AB2FB681A85FB6816
:103700005B8D9BB2013B9AB2FB685A85FB681B8DAF
:10371000002B7FF4B6AEFB68202283F83D20FB68C7
:10372000002283F83E20FB68002283F83C2000231F
:1037300000E0022318462837BD4680BD0400010082
:1037400080B58AB002AFF8607A603B600B467B813F
:10375000FFF7A6F8F8610023BB61FB6893F83D30E2
:10376000DBB2202B40F01181FB6900931923012269
:103770008849F86800F090FA0346002B01D0022334
:1037800004E1FB6893F83C30012B01D10223FDE0FA
:10379000FB68012283F83C20FB681B681B6803F070
:1037A0000103012B07D0FB681B681A68FB681B68C4
:1037B00042F001021A60FB681B681A68FB681B680C
:1037C00022F400621A60FB68242283F83D20FB6823
:1037D00000221A64FB68704ADA62FB681B681A6888
:1037E000FB681B6842F480721A60FB6900933B68B7
:1037F00000224FF00111F86800F04EFA0346002B4A
:103800000DD0FB681B681B6803F48073B3F5807FE1
:1038100003D1FB684FF400721A640323B6E07B897E
:10382000DBB21A46FB681B6802F0FE021A61FFF762
:1038300037F8F861FB681B685B6903F00203022B31
:103840000CBF01230023DBB2FB75FB681B685B69BF
:1038500003F48063B3F5806F0CBF01230023DBB258
:10386000BB7525E0FFF71CF80246FB69D31A3A68DE
:103870009A4202D33B68002B03D1FB68A02283F855
:103880003D20FB681B685B6903F00203022B0CBF41
:1038900001230023DBB2FB75FB681B685B6903F443
:1038A0008063B3F5806F0CBF01230023DBB2BB75CF
:1038B000FB6893F83D30DBB2A02B05D0FB7D002BDD
:1038C00002D1BB7D002BCDD0FB68202283F83D20A8
:1038D000FB681B685B6903F00203022B29D1FB68BC
:1038E0001B681A68FB681B6842F400721A600023A8
:1038F0003B61FB681B685B693B61FB681B689B69FC
:103900003B613B69FB690093192301222149F86857
:1039100000F0C2F90346002B01D0012336E0FB681A
:10392000202283F83D20FB68002283F83C200023FE
:103930002CE0FB681B681A68FB681B6842F4007285
:103940001A60FB681B686FF480625A61FB69009320
:10395000192301220F49F86800F09EF90346002B55
:1039600001D0012312E0BB690133BB61BA697B68F6
:103970009A42FFF432AFFB68202283F83D20FB68B7
:10398000002283F83C20012300E002231846203760
:10399000BD4680BD020010000000FFFF80B588B06A
:1039A00002AFF860084611461A4603467B810B4673
:1039B0003B811346FB80FB681B681A68FB681B6829
:1039C00042F480721A607B6A00933B6A00224FF0D7
:1039D0000111F86800F060F90346002B0DD0FB6878
:1039E0001B681B6803F48073B3F5807F03D1FB6809
:1039F0004FF400721A6403235FE07B89DBB21A463E
:103A0000FB681B6802F0FE021A617B6A3A6A2D4964
:103A1000F86800F0BBF90346002B01D001234CE00D
:103A200000237B61FB681B685B697B61FB681B682B
:103A30009B697B617B697A6A396AF86800F046FAAB
:103A40000346002B0DD0FB681B6C042B07D1FB68D1
:103A50001B681A68FB681B6842F400721A60012335
:103A60002BE0FB88012B05D13B89DAB2FB681B6890
:103A70001A6121E03B891B0A9BB2DAB2FB681B6822
:103A80001A617A6A396AF86800F020FA0346002B56
:103A90000DD0FB681B6C042B07D1FB681B681A68F0
:103AA000FB681B6842F400721A60012305E03B8941
:103AB000DAB2FB681B681A61002318461837BD4646
:103AC00080BD00BF0200010080B588B002AFF86081
:103AD000084611461A4603467B810B463B81134636
:103AE000FB80FB681B681A68FB681B6842F48062F5
:103AF0001A60FB681B681A68FB681B6842F48072D6
:103B00001A607B6A00933B6A00224FF00111F8684B
:103B100000F0C2F80346002B0DD0FB681B681B6841
:103B200003F48073B3F5807F03D1FB684FF4007218
:103B30001A640323AAE07B89DBB21A46FB681B6880
:103B400002F0FE021A617B6A3A6A5249F86800F094
:103B50001DF90346002B01D0012397E000237B6170
:103B6000FB681B685B697B61FB681B689B697B6109
:103B70007B697A6A396AF86800F0A8F90346002B75
:103B80000DD0FB681B6C042B07D1FB681B681A68FF
:103B9000FB681B6842F400721A60012376E0FB8820
:103BA000012B05D13B89DAB2FB681B681A6121E061
:103BB0003B891B0A9BB2DAB2FB681B681A617A6AFE
:103BC000396AF86800F082F90346002B0DD0FB68D3
:103BD0001B6C042B07D1FB681B681A68FB681B6809
:103BE00042F400721A60012350E03B89DAB2FB68AC
:103BF0001B681A617A6A396AF86800F067F9034647
:103C0000002B0DD0FB681B6C042B07D1FB681B68D5
:103C10001A68FB681B6842F400721A60012335E0E1
:103C2000FB681B681A68FB681B6842F480721A60A4
:103C30007B6A00933B6A00224FF00111F86800F0A4
:103C40002BF80346002B0DD0FB681B681B6803F4A0
:103C50008073B3F5807F03D1FB684FF400721A6460
:103C6000032313E07B89DBB243F00103DAB2FB6884
:103C70001B681A617B6A3A6A0649F86800F086F8A0
:103C80000346002B01D0012300E00023184618371B
:103C9000BD4680BD0200010080B584B000AFF86071
:103CA000B9603B601346FB7148E03B68B3F1FF3FEE
:103CB00044D0FEF7F5FD0246BB69D31A3A689A4232
:103CC00002D33B68002B39D1BB681B0CDBB2012B44
:103CD0000DD1FB681B685B69DA43BB6813409BB27C
:103CE000002B0CBF01230023DBB21A460CE0FB685B
:103CF0001B689B69DA43BB6813409BB2002B0CBF67
:103D000001230023DBB21A46FB799A4216D1FB68E5
:103D100000221A63FB68202283F83D20FB68002202
:103D200083F83E20FB681B6C43F02002FB681A649A
:103D3000FB68002283F83C20012323E0BB681B0CB6
:103D4000DBB2012B0DD1FB681B685B69DA43BB68F2
:103D500013409BB2002B0CBF01230023DBB21A4699
:103D60000CE0FB681B689B69DA43BB6813409BB29D
:103D7000002B0CBF01230023DBB21A46FB799A42C9
:103D800093D0002318461037BD4680BD80B584B05F
:103D900000AFF860B9607A603B6071E0FB681B6857
:103DA0005B6903F48063B3F5806F23D1FB681B6804
:103DB0001A68FB681B6842F400721A60FB681B6893
:103DC0006FF480625A61FB6800221A63FB6820224C
:103DD00083F83D20FB68002283F83E20FB681B6CC3
:103DE00043F00402FB681A64FB68002283F83C205D
:103DF000012367E07B68B3F1FF3F41D0FEF750FD40
:103E000002463B68D31A7A689A4202D37B68002B39
:103E100036D1BB681B0CDBB2012B0CD1FB681B68D5
:103E20005B69DA43BB6813409BB2002B14BF0123CC
:103E30000023DBB20BE0FB681B689B69DA43BB68BD
:103E400013409BB2002B14BF01230023DBB2002BD5
:103E500016D0FB6800221A63FB68202283F83D20FD
:103E6000FB68002283F83E20FB681B6C43F02002B5
:103E7000FB681A64FB68002283F83C20012321E0E0
:103E8000BB681B0CDBB2012B0CD1FB681B685B69A8
:103E9000DA43BB6813409BB2002B14BF01230023FD
:103EA000DBB20BE0FB681B689B69DA43BB6813401D
:103EB0009BB2002B14BF01230023DBB2002B7FF445
:103EC0006DAF002318461037BD4680BD80B584B065
:103ED00000AFF860B9607A6034E0F86800F0E3F8A9
:103EE0000346002B01D0012334E0BB68B3F1FF3F50
:103EF00028D0FEF7D5FC02467B68D31ABA689A42EE
:103F000002D3BB68002B1DD1FB681B685B6903F003
:103F10008003802B16D0FB6800221A63FB682022E6
:103F200083F83D20FB68002283F83E20FB681B6C71
:103F300043F02002FB681A64FB68002283F83C20EF
:103F4000012307E0FB681B685B6903F08003802B9B
:103F5000C3D1002318461037BD4680BD80B584B05C
:103F600000AFF860B9607A6034E0F86800F09BF860
:103F70000346002B01D0012334E0BB68B3F1FF3FBF
:103F800028D0FEF78DFC02467B68D31ABA689A42A5
:103F900002D3BB68002B1DD1FB681B685B6903F073
:103FA0000403042B16D0FB6800221A63FB6820224E
:103FB00083F83D20FB68002283F83E20FB681B6CE1
:103FC00043F02002FB681A64FB68002283F83C205F
:103FD000012307E0FB681B685B6903F00403042B03
:103FE000C3D1002318461037BD4680BD80B584B0CC
:103FF00000AFF860B9607A6049E0FB681B685B69F4
:1040000003F01003102B19D1FB681B686FF010022E
:104010005A61FB6800221A63FB68202283F83D2066
:10402000FB68002283F83E20FB681A6CFB681A6468
:10403000FB68002283F83C20012330E0FEF730FCCF
:1040400002467B68D31ABA689A4202D3BB68002B37
:104050001DD1FB681B685B6903F04003402B16D041
:10406000FB6800221A63FB68202283F83D20FB686E
:10407000002283F83E20FB681B6C43F02002FB68A3
:104080001A64FB68002283F83C20012307E0FB68E8
:104090001B685B6903F04003402BAED10023184638
:1040A0001037BD4680BD80B483B000AF78607B68B8
:1040B0001B685B6903F48063B3F5806F1BD17B6879
:1040C0001B686FF480625A617B6800221A637B6808
:1040D000202283F83D207B68002283F83E207B6805
:1040E0001B6C43F004027B681A647B68002283F82F
:1040F0003C20012300E0002318460C37BD465DF844
:10410000047B704780B586B002AF78607B68002B77
:1041100001D1012301E17B681B68BB607B6893F8D8
:104120009534DBB2002B06D17B68002283F89424FF
:10413000786806F0A9FF7B68032283F89524BB68A2
:10414000B3F1A04F02D17B6800229A717B681B6893
:10415000184603F06CFB7B6818687B681A7C8DF846
:10416000002004330ECB03F04BFA0346002B05D09E
:104170007B68022283F895240123CEE07B681B68CC
:104180000021184603F064FB0346002B05D07B6832
:10419000022283F895240123BFE00023FB734AE049
:1041A000FA7B79681346DB0013449B000B441533FC
:1041B00001221A70FA7B79681346DB0013449B00D6
:1041C0000B441433FA7B1A70FA7BFB7B98B2796844
:1041D0001346DB0013449B000B442E3302461A8027
:1041E000FA7B79681346DB0013449B000B441833B9
:1041F00000221A70FA7B79681346DB0013449B0097
:104200000B441C3300221A60FA7B79681346DB00EA
:1042100013449B000B44203300221A60FA7B796818
:104220001346DB0013449B000B44243300221A6026
:10423000FB7B0133FB737B681B79FA7B9A42AFD31C
:104240000023FB7344E0FA7B79681346DB001344D8
:104250009B000B4403F2552300221A70FA7B796805
:104260001346DB0013449B000B4403F51573FA7BE4
:104270001A70FA7B79681346DB0013449B000B44E9
:1042800003F5167300221A70FA7B79681346DB0077
:1042900013449B000B4403F5177300221A60FA7B4A
:1042A00079681346DB0013449B000B4403F5187335
:1042B00000221A60FA7B79681346DB0013449B00E6
:1042C0000B4403F5197300221A60FB7B0133FB7367
:1042D0007B681B79FA7B9A42B5D37B6818687B6848
:1042E0001A7C8DF8002004330ECB03F0FDFA034650
:1042F000002B05D07B68022283F8952401230CE073
:104300007B6800225A747B68012283F895247B68BD
:104310001B68184604F047FB002318461037BD46BB
:1043200080BD80B584B000AF78607B681B68FB609F
:104330007B6893F89434012B01D1022322E07B683F
:10434000012283F89424FB68DB6803F04003002B10
:1043500009D07B685B7B012B05D1FB689B6B43F429
:104360008032FB689A637B681B68184603F04EFA3C
:104370007B681B68184604F0F5FA7B68002283F816
:104380009424002318461037BD4680BD90B58DB0EB
:1043900000AF78607B681B683B623B6AFB617B68AF
:1043A0001B68184604F0B3FB0346002B40F08C84D6
:1043B0007B681B68184604F017FB0346002B00F0CF
:1043C0008284FB6903F500639B681B0AC3F30D023B
:1043D0007B68C3F8D4247B681B68184604F004FB90
:1043E000034603F00203022B07D17B681B685A695E
:1043F0007B681B6802F002025A617B681B681846E2
:1044000004F0F2FA034603F01003102B61D17B682D
:104410001B689A697B681B6822F010029A613B6AEC
:104420001B6ABB61BB6903F00F021346DB00134438
:104430009B0003F514737A68134404337B61BB69F2
:1044400003F4F013B3F5802F24D1BA6947F6F07363
:104450001340002B35D07B69D968BB691B099BB21F
:10446000C3F30A039BB21A46386A04F029F97B6940
:10447000DA68BB691B09C3F30A031A447B69DA6073
:104480007B695A69BB691B09C3F30A031A447B6938
:104490005A6116E0BB6903F4F013B3F5402F10D155
:1044A0007B6803F29C4308221946386A04F008F935
:1044B0007B695A69BB691B09C3F30A031A447B6908
:1044C0005A617B681B689A697B681B6842F010021E
:1044D0009A617B681B68184604F086FA034603F469
:1044E0000023B3F5002F40F0A78000237B627B6898
:1044F0001B68184604F08BFAB86299E0BB6A03F0B7
:104500000103002B00F08E807B681B687A6AD2B2B0
:104510001146184604F0AFFA38613B6903F0010315
:10452000002B0CD07B6A5A01FB69134403F53063FE
:104530001A4601239360796A786800F0A3FE3B690C
:1045400003F00803002B0CD07B6A5A01FB6913446B
:1045500003F530631A4608239360796A786800F09F
:1045600079FF3B6903F01003002B08D07B6A5A01E6
:10457000FB69134403F530631A46102393603B69CB
:1045800003F00203002B30D03B6A5B6903F0800329
:10459000802B09D1FB6903F500635B68FA6902F5BA
:1045A000006243F4806353607A6A1346DB0013446D
:1045B0009B0003F514737A68134404337B617B69B1
:1045C000DB78012B08D17B690022DA707B6ADBB2D1
:1045D0001946786806F054FE7B6A5A01FB69134459
:1045E00003F530631A46022393603B6903F020030E
:1045F000002B08D07B6A5A01FB69134403F5306332
:104600001A46202393603B6903F40053002B09D022
:104610007B6A5A01FB69134403F530631A464FF471
:10462000005393607B6A01337B62BB6A5B08BB62A9
:10463000BB6A002B7FF462AF7B681B68184604F0EE
:10464000D3F9034603F48023B3F5802F40F0DB80D9
:104650007B681B68184604F0F4F9B86200237B629B
:10466000CDE0BB6A03F00103002B00F0C2807B6841
:104670001B687A6AD2B21146184604F01AFA3861F9
:104680003B6903F00103002B57D07B6A03F00F0353
:10469000012202FA03F3FB60FB6903F500635A6B26
:1046A000FB68DB43F96901F5006113404B637B6AEA
:1046B0005A01FB69134403F510631A460123936002
:1046C0007B689B79012B32D179687A6A1346DB00CB
:1046D00013449B000B442033196878687A6A1346A8
:1046E000DB0013449B0003441C331B6819447868A7
:1046F0007A6A1346DB0013449B000344203319609D
:104700007B6A002B13D179687A6A1346DB00134465
:104710009B000B4424331B68002B08D17B6818686E
:104720007B6803F29C431A46012104F021FA7B6A5C
:10473000DBB21946786806F028FD3B6903F00803F0
:10474000002B08D07B6A5A01FB69134403F5106300
:104750001A46082393603B6903F01003002B08D02E
:104760007B6A5A01FB69134403F510631A46102350
:1047700093603B6903F04003002B08D07B6A5A0129
:10478000FB69134403F510631A46402393603B69A9
:1047900003F00203002B23D0796A386A03F008FA89
:1047A0007A6A1346DB0013449B0010337A68134483
:1047B00004337B617B69DB78012B08D17B690022A4
:1047C000DA707B6ADBB21946786806F06BFD7B6AAB
:1047D0005A01FB69134403F510631A4602239360E0
:1047E0003B6903F08003002B03D0796A786800F0FE
:1047F000BDFC7B6A01337B62BB6A5B08BB62BB6A40
:10480000002B7FF42EAF7B681B68184604F0ECF891
:10481000034603F00043B3F1004F22D1FB6903F5D7
:1048200000635B68FA6902F5006223F001035360DC
:104830007B6893F8CC34012B08D17B68002283F885
:10484000CC240021786800F0A3FE02E0786806F02E
:1048500009FD7B681B685A697B681B6802F000428F
:104860005A617B681B68184604F0BEF8034603F4DF
:104870000063B3F5006F12D1FB6903F500639B6819
:1048800003F00103012B02D1786806F0C5FC7B68B8
:104890001B685A697B681B6802F400625A617B6876
:1048A0001B68184604F0A0F8034603F48053B3F5E0
:1048B000805F40F0B780FB6903F500635B68FA69CD
:1048C00002F5006223F0010353607B681B6810212E
:1048D000184603F06DF90023FB6246E0FB6A5A01BB
:1048E000FB69134403F510631A464FF67F33936058
:1048F000FB6A5A01FB69134403F510631B68FA6AEB
:104900005101FA690A4402F5106223F4001313609E
:10491000FB6A5A01FB69134403F530631A464FF6EC
:104920007F339360FB6A5A01FB69134403F53063DC
:104930001B68FA6A5101FA690A4402F5306223F4ED
:1049400000131360FB6A5A01FB69134403F53063DB
:104950001B68FA6A5101FA690A4402F5306243F0B1
:1049600000631360FB6A0133FB627B681B791A46A4
:10497000FB6A9342B2D3FB6903F50063DB69FA6912
:1049800002F5006243F00113D3617B68DB7B002BEF
:1049900016D0FB6903F50063D3F88430FA6902F599
:1049A000006243F00B03C2F88430FB6903F5006337
:1049B0005B6CFA6902F5006243F00B03536415E087
:1049C000FB6903F500635B69FA6902F5006243F471
:1049D000005343F02B035361FB6903F500631B692C
:1049E000FA6902F5006243F00B031361FB6903F5FA
:1049F00000631B68FA6902F5006223F4FE6313602A
:104A00007B6818687B6899797B6803F29C431A4637
:104A100004F0AEF87B681B685A697B681B6802F477
:104A200080525A617B681B68184603F0DDFF03461D
:104A300003F40053B3F5005F23D17B681B6818466D
:104A400004F073F87B681B68184603F02AF90346E4
:104A50001A467B68DA717B681C6801F0C7F9014669
:104A60007B68DB791A46204602F02EFE786806F055
:104A7000B4FB7B681B685A697B681B6802F40052B0
:104A80005A617B681B68184603F0AEFF034603F0CB
:104A90000803082B0AD1786806F091FB7B681B6835
:104AA0005A697B681B6802F008025A617B681B68C0
:104AB000184603F099FF034603F08003802B23D1AF
:104AC0003B6A9B6923F080023B6A9A6101237B6207
:104AD00014E079687A6A1346DB0013449B000B44A8
:104AE00003F257231B78012B05D17B6ADBB21946F1
:104AF000786800F00AFB7B6A01337B627B681B7974
:104B00001A467B6A9342E4D37B681B68184603F01D
:104B10006BFF034603F48013B3F5801F3CD10123E0
:104B20007B622BE07B6A5A01FB69134403F5106337
:104B30001B68BB6179687A6A1346DB0013449B00EB
:104B40000B4418331B78012B15D1BB69002B12DAEB
:104B500079687A6A1346DB0013449B000B441733D1
:104B600001221A707B6ADBB263F07F03DBB2194665
:104B7000786800F0CAFA7B6A01337B627B681B7934
:104B80001A467B6A9342CDD37B681B685A697B685F
:104B90001B6802F480125A617B681B68184603F098
:104BA00023FF034603F40013B3F5001F56D101237E
:104BB0007B6245E07B6A5A01FB69134403F530636D
:104BC0001B68BB6179687A6A1346DB0013449B005B
:104BD0000B4403F516731B78012B2ED1BB69002BF8
:104BE0002BDABB691A0C7B68D3F8D434534003F03A
:104BF0000103002B21D179687A6A1346DB00134444
:104C00009B000B4403F2572301221A703B6A9B69F5
:104C100043F080023B6A9A613B6A5B6903F0800360
:104C2000002B0AD1FB6903F500635B68FA6902F5A2
:104C3000006243F40073536008E07B6A01337B62D7
:104C40007B681B791A467B6A9342B3D37B681B68E7
:104C50005A697B681B6802F400125A617B681B6802
:104C6000184603F0C1FE034603F08043B3F1804FC2
:104C70000AD1786806F028FB7B681B685A697B6854
:104C80001B6802F080425A617B681B68184603F07B
:104C9000ABFE034603F00403042B15D17B681B68AD
:104CA0005B68BB61BB6903F00403002B02D078682A
:104CB00006F018FB7B681B6859687B681B68BA693B
:104CC0000A435A6000E000BF3437BD4690BD80B54E
:104CD00082B000AF78600B46FB707B6893F8943429
:104CE000012B01D1022312E07B68012283F8942476
:104CF0007B68FA785A747B681B68FA781146184604
:104D000003F00AFE7B68002283F8942400231846EF
:104D10000837BD4680BD80B584B000AF78600846D6
:104D200011461A460346FB700B463B801346BB7088
:104D30000023FB7297F90330002B0FDAFB7803F0A6
:104D40000F021346DB0013449B0010337A681344B0
:104D50000433FB60FB6801225A700FE0FB7803F01C
:104D60000F021346DB0013449B0003F514737A68AB
:104D700013440433FB60FB6800225A70FB7803F095
:104D80000F03DAB2FB681A703B88C3F30A02FB68B0
:104D90009A60FB68BA781A71FB685B78002B04D0C4
:104DA000FB681B781A46FB685A83BB78022B02D13A
:104DB000FB6800225A717B6893F89434012B01D16F
:104DC00002230EE07B68012283F894247B681B6831
:104DD000F968184602F08AFF7B68002283F8942461
:104DE000FB7A18461037BD4680BD80B584B000AF51
:104DF00078600B46FB7097F90330002B0FDAFB78D5
:104E000003F00F021346DB0013449B0010337A6853
:104E100013440433FB60FB6801225A700FE0FB78F7
:104E200003F00F021346DB0013449B0003F51473D9
:104E30007A6813440433FB60FB6800225A70FB78E5
:104E400003F00F03DAB2FB681A707B6893F89434AE
:104E5000012B01D102230EE07B68012283F8942408
:104E60007B681B68F968184602F0C8FF7B6800225F
:104E700083F89424002318461037BD4680BD80B5C2
:104E800086B000AFF8607A603B600B46FB72FB7A3D
:104E900003F00F021346DB0013449B0003F5147369
:104EA000FA68134404337B617B697A68DA607B6952
:104EB0003A681A617B6900225A617B6900225A7044
:104EC000FB7A03F00F03DAB27B691A70FB689B79F7
:104ED000012B02D17A687B69DA61FB681868FB688C
:104EE0009B791A46796903F065F80023184618374C
:104EF000BD4680BD80B483B000AF78600B46FB70C8
:104F0000FB7803F00F0279681346DB0013449B0023
:104F10000B4403F51A731B6818460C37BD465DF841
:104F2000047B704780B586B000AFF8607A603B6064
:104F30000B46FB72FB7A03F00F021346DB001344AF
:104F40009B001033FA68134404337B617B697A68F1
:104F5000DA607B693A681A617B6900225A617B6971
:104F600001225A70FB7A03F00F03DAB27B691A70E0
:104F7000FB689B79012B02D17A687B69DA61FB6857
:104F80001868FB689B791A46796903F013F80023C7
:104F900018461837BD4680BD80B584B000AF786034
:104FA0000B46FB70FB7803F00F037A68127993428B
:104FB00001D901234FE097F90330002B0FDAFB787A
:104FC00003F00F021346DB0013449B0010337A6892
:104FD00013440433FB60FB6801225A700DE0FA7839
:104FE0001346DB0013449B0003F514737A681344E3
:104FF0000433FB60FB6800225A70FB6801229A7040
:10500000FB7803F00F03DAB2FB681A707B6893F841
:105010009434012B01D102231DE07B68012283F827
:1050200094247B681B68F968184603F0A1FBFB78A1
:1050300003F00F03002B09D17B6818687B6899790E
:105040007B6803F29C431A4603F092FD7B680022C2
:1050500083F89424002318461037BD4680BD80B5E0
:1050600084B000AF78600B46FB70FB7803F00F0351
:105070007A681279934201D9012342E097F903300B
:10508000002B0FDAFB7803F00F021346DB0013440A
:105090009B0010337A6813440433FB60FB680122E1
:1050A0005A700FE0FB7803F00F021346DB00134445
:1050B0009B0003F514737A6813440433FB60FB68A8
:1050C00000225A70FB6800229A70FB7803F00F03ED
:1050D000DAB2FB681A707B6893F89434012B01D123
:1050E00002230EE07B68012283F894247B681B680E
:1050F000F968184603F0AAFB7B68002283F8942421
:10510000002318461037BD4680BD80B584B000AF7F
:1051100078600B46FB7097F90330002B0CDAFB78B4
:1051200003F00F021346DB0013449B0010337A6830
:1051300013440433FB600CE0FB7803F00F021346CA
:10514000DB0013449B0003F514737A6813440433A3
:10515000FB607B681B68F968184603F0C9F90346D1
:10516000FB72FB7A18461037BD4680BD80B58AB009
:1051700002AF786039607B681B687B617B693B614B
:105180003A681346DB0013449B0010337A681344DB
:105190000433FB60FB685A69FB681B699A4201D9BA
:1051A00001236BE0FB681A69FB685B69D31AFB613A
:1051B000FB689B68FA699A4202D9FB689B68FB61AD
:1051C000FB6903339B08BB612AE0FB681A69FB6833
:1051D0005B69D31AFB61FB689B68FA699A4202D942
:1051E000FB689B68FB61FB6903339B08BB61FB6841
:1051F000D9683B68DAB2FB6998B27B689B79009307
:105200000346786903F01EFAFB68DA68FB691A4402
:10521000FB68DA60FB685A69FB691A44FB685A61EB
:105220003B685A013B69134403F510639B699BB2C9
:10523000BA699A4209D8FB685A69FB681B699A42A5
:1052400003D2FB681B69002BBFD1FB681A69FB689E
:105250005B699A4211D83B6803F00F03012202FAFE
:1052600003F3BB603B6903F500635A6BBB68DB4328
:10527000396901F5006113404B630023184620375C
:10528000BD4680BD80B588B000AF786039607B686E
:105290001B68FB61FB69BB61FB693C3304331B6822
:1052A0007B613B685A01BB69134403F530639B681B
:1052B0003B617B689B79012B7BD13B6903F0080341
:1052C000002B15D07B69614A934240F2B9803B695B
:1052D00003F40043002B00F0B3803B685A01BB6924
:1052E000134403F530631A464FF400439360A7E07C
:1052F0003B6903F02003002B09D03B685A01BB69CE
:10530000134403F530631A462023936098E03B6909
:1053100003F02803002B40F093807B694B4A9342B3
:105320000FD93B6903F40043002B0AD03B685A01B4
:10533000BB69134403F530631A464FF4004393608E
:105340007EE03A681346DB0013449B0003F51473B8
:105350007A6813440433FB60FB681A6A3B6859019E
:10536000BB690B4403F530631B69C3F31203D21A04
:10537000FB685A613B68002B14D1FB681B69002B4A
:1053800009D17B6818687B6803F29C431A460121A7
:1053900003F0EEFB06E0FB68DA68FB685B691A4421
:1053A000FB68DA603B68DBB21946786805F0D2FE2C
:1053B00046E07B69264A934224D13B6903F40043CB
:1053C000002B0AD03B685A01BB69134403F53063D4
:1053D0001A464FF40043936032E03B6903F0200328
:1053E000002B08D03B685A01BB69134403F53063B6
:1053F0001A46202393603B68DBB21946786805F0B3
:10540000A9FE1DE03B68002B14D179683A68134669
:10541000DB0013449B000B4403F519731B68002B3E
:1054200008D17B6818687B6803F29C431A46002108
:1054300003F09EFB3B68DBB21946786805F08AFEF4
:10544000002318462037BD4680BD00BF0A30544FA8
:105450000A31544F80B586B000AF786039607B6800
:105460001B687B617B693B617B693C3304331B6850
:10547000FB603B685A013B69134403F530639B684A
:10548000BB60FB68154A93420ED9BB6803F4004326
:10549000002B09D03B685A013B69134403F5306384
:1054A0001A464FF400439360786805F041FEFB68AC
:1054B0000A4A93420CD97B689B79012B08D17B68FF
:1054C00018687B6803F29C431A46012103F050FBE5
:1054D000002318461837BD4680BD00BF0A30544F20
:1054E00080B485B000AF78600B46FB7013463B80FC
:1054F0007B681B685B6ABB60FB78002B07D13B882D
:1055000019047B681B68BA680A439A6228E07B68C2
:105510001B689B6A1B0CBA681344BB600023FB73B7
:105520000DE07B681A68FB7B40339B0013445B688B
:105530001B0CBA681344BB60FB7B0133FB73FA7B23
:10554000FB78013B9A42ECD33B8818047B681968CE
:10555000FB78013BBA68024340339B000B445A601E
:10556000002318461437BD465DF8047B704780B4AD
:1055700083B000AF78600B467B807B681B687A88BD
:105580005A62002318460C37BD465DF8047B70470D
:1055900080B483B000AF78600B46FB7000BF0C375F
:1055A000BD465DF8047B704780B586B000AF78607B
:1055B0007B68002B01D1012367E27B681B6803F045
:1055C0000103002B75D0884B9B6803F00C03042B60
:1055D0000CD0854B9B6803F00C03082B12D1824B37
:1055E0005B6803F48003B3F5800F0BD17E4B1B681F
:1055F00003F40033002B5BD07B685B68002B57D132
:10560000012342E27B685B68B3F5803F06D1764BAD
:105610001B68754A43F4803313601DE07B685B6848
:10562000B3F5A02F0CD1704B1B686F4A43F4802355
:1056300013606D4B1B686C4A43F4803313600BE0BE
:10564000694B1B68684A23F480331360664B1B6800
:10565000654A23F4802313607B685B68002B13D0BA
:10566000FDF71EF9386108E0FDF71AF902463B69BB
:10567000D31A642B01D9032307E25B4B1B6803F4A5
:105680000033002BF0D014E0FDF70AF9386108E090
:10569000FDF706F902463B69D31A642B01D90323AF
:1056A000F3E1514B1B6803F40033002BF0D100E011
:1056B00000BF7B681B6803F00203002B63D04A4BDA
:1056C0009B6803F00C03002B0BD0474B9B6803F047
:1056D0000C03082B1CD1444B5B6803F48003002BA4
:1056E00016D1414B1B6803F00203002B05D07B68E9
:1056F000DB68012B01D00123C7E13B4B1B6823F082
:10570000F8027B681B69DB00374913430B603AE002
:105710007B68DB68002B20D0344B01221A60FDF738
:10572000BFF8386108E0FDF7BBF802463B69D31AC1
:10573000022B01D90323A8E12B4B1B6803F00203C2
:10574000002BF0D0284B1B6823F0F8027B681B6904
:10575000DB00254913430B6015E0244B00221A603F
:10576000FDF79EF8386108E0FDF79AF802463B69BC
:10577000D31A022B01D9032387E11B4B1B6803F0CB
:105780000203002BF0D17B681B6803F00803002B99
:1057900036D07B685B69002B16D0154B01221A604E
:1057A000FDF77EF8386108E0FDF77AF802463B69BC
:1057B000D31A022B01D9032367E10B4B5B6F03F074
:1057C0000203002BF0D01BE0094B00221A60FDF70A
:1057D00067F838610EE0FDF763F802463B69D31ABB
:1057E000022B07D9032350E1003802400000474252
:1057F000800E4742884B5B6F03F00203002BEAD117
:105800007B681B6803F00403002B00F097800023E3
:10581000FB75814B1B6C03F08053002B0FD10023D1
:10582000BB607D4B1B6C7C4A43F0805313647A4B06
:105830001B6C03F08053BB60BB680123FB75774B87
:105840001B6803F48073002B18D1744B1B68734AD8
:1058500043F480731360FDF723F8386108E0FDF727
:105860001FF802463B69D31A022B01D903230CE12E
:105870006A4B1B6803F48073002BF0D07B689B6835
:10588000012B06D1644B1B6F634A43F0010313677E
:105890001CE07B689B68052B0CD15F4B1B6F5E4A3D
:1058A00043F0040313675C4B1B6F5B4A43F0010337
:1058B00013670BE0584B1B6F574A23F00103136724
:1058C000554B1B6F544A23F0040313677B689B6896
:1058D000002B15D0FCF7E4FF38610AE0FCF7E0FF8D
:1058E00002463B69D31A41F28832934201D903231D
:1058F000CBE0494B1B6F03F00203002BEED014E00A
:10590000FCF7CEFF38610AE0FCF7CAFF02463B69AC
:10591000D31A41F28832934201D90323B5E03E4BBA
:105920001B6F03F00203002BEED1FB7D012B05D191
:10593000394B1B6C384A23F0805313647B689B6996
:10594000002B00F0A180344B9B6803F00C03082B64
:105950005CD07B689B69022B41D1314B00221A60DD
:10596000FCF79EFF386108E0FCF79AFF02463B69AE
:10597000D31A022B01D9032387E0274B1B6803F0BE
:105980000073002BF0D17B68DA697B681B6A1A43CD
:105990007B685B6A9B011A437B689B6A5B08013BDF
:1059A0001B041A437B68DB6A1B061B4913434B60CD
:1059B0001B4B01221A60FCF773FF386108E0FCF70B
:1059C0006FFF02463B69D31A022B01D903235CE027
:1059D000114B1B6803F00073002BF0D054E0104B08
:1059E00000221A60FCF75CFF386108E0FCF758FF02
:1059F00002463B69D31A022B01D9032345E0064B2B
:105A00001B6803F00073002BF0D13DE07B689B69BD
:105A1000012B07D1012338E000380240007000401C
:105A2000600047421B4B5B68FB607B689B69012BF6
:105A300028D0FB6803F480027B68DB699A4221D19D
:105A4000FB6803F03F027B681B6A9A421AD1FA682E
:105A500047F6C07313407A68526A9201934211D19B
:105A6000FB6803F440327B689B6A5B08013B1B04C4
:105A70009A4207D1FB6803F070627B68DB6A1B0601
:105A80009A4201D0012300E0002318461837BD4692
:105A900080BD00BF0038024080B584B000AF7860A0
:105AA00039607B68002B01D10123CCE0684B1B6877
:105AB00003F007033A689A420CD9654B3A68D2B2B0
:105AC0001A70634B1B6803F007033A689A4201D0CF
:105AD0000123B8E07B681B6803F00203002B20D091
